:020000003B299A
:1000080020008E140829090021001A1B0928210044
:10001800990178309900991321009A1A1128210022
:1000280000309E00230000308C00210000308C003E
:100038002700003091002700003092002700003090
:100048008C00260000308C0020008C01210000303C
:100058008D00230000308D00240000308D00250025
:1000680000308D00260000308D00270000309400FD
:1000780027000030950027000030960020008D01F1
:10008800220000308E00210019308E00240000303C
:100098008E00250018308E00260000308E002700C4
:1000A8008E0120008E01270000309D0027000030BF
:1000B8009E002100003095002000C0308B002100F8
:1000C80000309100210000309200210000309300A0
:1000D8002100003094002000003091002000003002
:1000E80092002000003093002000003094000800A7
:1000F80022009D111D1221008E150E1624000930B4
:100108009200240028309500240000309600240036
:10011800083097002400C03094000800E320240031
:100128001614161895282000911D97289111200063
:100138004008240091002000911D9F28911124005F
:100148001418A328E3202400161BDD2820004108EA
:10015800240091002000911DAE289111240014184C
:10016800B228E3202400161BDD28200042082400C2
:1001780091002000911DBD28911124001418C12858
:10018800E3202400161BDD282000430824009100EA
:100198002000911DCC28911124001418D028E320A8
:1001A8002400161BDD28240016151619D92800303E
:1001B8000800240016151619DF28FF30080024004F
:1001C8001F3096052000031DE32824001419E92890
:1001D800080021008E1723009F0123009B011F3078
:1001E8009B0023001F309C0023009E011E15230046
:1001F800990123009D01B0309D0021009116220035
:100208009D0122009C010800200019082000C80058
:1002180020008E102000C7182B29471821292000FC
:1002280048082000F000F01F3529701B35292300ED
:10023800990120004714C7103529200048082000DC
:10024800F1002300990120004710C7143529200028
:1002580048082000F2002300990120004710C71029
:10026800352920008D002000911200300900082057
:100278007C20ED2020000030C0002000AA30C10002
:1002880020005530C2006730C3004A2920000E18EC
:0402980092204A293D
:020000040001F9
:04000E00E401FF18F2
:00000001FF
