:02000000B42822
:020008000900ED
:1000100021001A1B08282100EB30990021009A1AB0
:100020000F28210000309E00230000308C002100AA
:1000300000308C0027000030910027000030920033
:10004000270000308C00260000308C0020008C013E
:10005000210001308D00230000308D00240000308D
:100060008D00250000308D00260000308D00270017
:1000700000309400270000309500270000309600E3
:1000800020008D01220000308E00210018308E00EB
:10009000240000308E00250018308E00260000302D
:1000A0008E0027008E0120008E01270000309D0069
:1000B000270000309E002100003095002000003015
:1000C0008B002100003091002100003092000800D8
:1000D0002400151221008E150E1624003E309500C6
:1000E00024008130960024000B30970024008030DB
:1000F00094002400FE30930008002000911DAD28DC
:10010000240014198C28941A8D282400110820002A
:100110008D142000C001AD28AD282000C018A428EF
:1001200040189B2820008D16240011082000C100D3
:1001300020004014AD2820000D16240011082000D6
:10014000C20020004010C01420000D162400110829
:100150002000C30020004010C0102400151620000D
:10016000911120008D100800082068202000C00197
:0A017000B928200091197D20B9285C
:020000040001F9
:04000E00E401FF18F2
:00000001FF
