:100D22000900382F21001A1B942E210099017830D6
:100D32009900991321009A1A9C2E210000309E00DE
:100D4200230000308C002100BF308C0027000030CF
:100D52009100270000309200270000308C0026000E
:100D620000308C0020008C012100FF308D00230018
:100D720000308D00240000308D00250000308D00F1
:100D8200260000308D00270000309400270000303C
:100D9200950027000030960020008D0122000030CF
:100DA2008E00210018308E00240000308E002500B5
:100DB20018308E00260000308E0027008E012000A1
:100DC2008E01270000309D00270000309E00210088
:100DD20000309500200000308B002100003091008F
:100DE20021000030920021000030930021000030E9
:100DF200940020000030910020000030920020007A
:100E020000309300200000309400080022009D1161
:100E12001D1221008E150E16240027309200240088
:100E220028309500240000309600240008309700F6
:100E32002400C0309400080021008E1723009F0177
:100E420023009B011F309B0023001F309C002300C6
:100E52009E011E152300990123009D01B0309D00C3
:100E62002100911622009D0122009C010800932678
:100E720007271D2720000030C0000030F300FF309C
:100E8200FB00432F22000E14462F2000911A7B27CD
:100E9200462F7610F401F50120007008F400741852
:100EA2007514F418F51474197515F419F515F4017F
:100EB2000D080F397506003A031D462F69272000D9
:100EC20077087B0271072000031CA527F4010800A4
:100ED20020000730F700F501F40108300C18F7077D
:100EE20010308C18F70720300C19F70740308C1996
:100EF200F7070800F8000808F9000308FA002300C1
:100F02001908F400F318982F7318922F2000F41F79
:100F12009F2F741B9F2FF41A9F2F7408F0007314D5
:100F22009F2F20007408F1007310F3149F2F2000EC
:100F32007408F2007310F3104A279F2F7908880073
:100F42007A088300780808007610F401F501F62784
:100F5200240016141618AB2F2000911DAD2F9111ED
:100F620020004008240091002000911DB52F91110E
:100F720024001418B92FF6272400161BF02F240082
:100F8200700891002000911DC32F911124001418A4
:100F9200C72FF6272400161BF02F2400710891009A
:100FA2002000911DD12F911124001418D52FF6275E
:100FB2002400161BF02F2400720891002000911DBE
:100FC200DF2F911124001418E32FF6272400161B9B
:100FD200F02F240016151619EC2F003008002400FB
:100FE20016151619F22FFF30080024001F3096053F
:0E0FF2002000031DF62F24001419FC2F080008
:020000040001F9
:04000E00E401FF18F2
:00000001FF
