:02000000AD2829
:020008000900ED
:1000100021001A1B092821009901783099009913B1
:1000200021009A1A1128210000309E002300003080
:100030008C002100BF308C00270000309100270089
:1000400000309200270000308C00260000308C0029
:1000500020008C012100FF308D00230000308D0036
:10006000240000308D00250000308D002600003077
:100070008D002700003094002700003095002700F5
:100080000030960020008D01220000308E002100FB
:1000900018308E00240000308E00250018308E00AD
:1000A000260000308E0027008E0120008E012700E0
:1000B00000309D00270000309E0021000030950098
:1000C000200000308B002100003091002100003022
:1000D00092002100003093002100003094002000A5
:1000E000003091002000003092002000003093008A
:1000F000200000309400080022009D111D122100F4
:100100008E150E162400273092002400283095000A
:100110002400003096002400083097002400C030EE
:100120009400080021008E1723009F0123009B01EB
:100130001F309B0023001F309C0023009E011E15D2
:100140002300990123009D01B0309D0021009116EC
:1001500022009D0122009C01080008207C209220A2
:1001600020000030C0000030F300FF30FB00B82852
:1001700022000E14BB282000911AF020BB28761014
:10018000F401F50120007008F40074187514F418D7
:10019000F51474197515F419F515F4010D080F39D6
:1001A0007506003A031DBB28DE20200077087B027D
:1001B00071072000031C1A21F401080020000730F9
:1001C000F700F501F40108300C18F70710308C180F
:1001D000F70720300C19F70740308C19F707080093
:1001E000F8000808F9000308FA0023001908F400D1
:1001F000F3180D29731807292000F41F1429741B04
:100200001429F41A14297408F00073141429200016
:100210007408F1007310F314142920007408F2001C
:100220007310F310BF201429790888007A0883001E
:10023000780808007610F401F5016B2124001614EB
:10024000161820292000911D222991112000400814
:10025000240091002000911D2A29911124001418D6
:100260002E296B212400161B65292400700891009B
:100270002000911D38299111240014183C296B216C
:100280002400161B65292400710891002000911D8F
:1002900046299111240014184A296B212400161BA9
:1002A00065292400720891002000911D54299111A4
:1002B0002400141858296B212400161B65292400DA
:1002C0001615161961290030080024001615161994
:1002D0006729FF30080024001F3096052000031D09
:0A02E0006B2924001419712908008D
:020000040001F9
:04000E00E401FF18F2
:00000001FF
